:020000040800F2
:10000000E00E002065020008311D0008CF1B00082B
:100010002D1D0008190500087525000800000000C6
:10002000000000000000000000000000711F000838
:100030001D050008000000006D1D0008731F00086A
:100040007F0200087F0200087F0200087F0200088C
:100050007F0200087F0200081F0500087F020008D9
:100060007F0200087F0200087F0200087F0200086C
:100070007F0200087F0200087F0200087F0200085C
:100080007F0200087F0200087F0200087F0200084C
:100090007F0200087F0200087F0200087F0200083C
:1000A0007F0200087F0200087F0200087F0200082C
:1000B0007F0200087F0200087F0200087F0200081C
:1000C0007F0200087F0200087F0200087F0200080C
:1000D0007F0200087F0200087F0200082525000833
:1000E0007F0200087F0200087F0200087F020008EC
:1000F0007F0200087F0200087F0200087F020008DC
:100100007F0200087F0200087F0200087F020008CB
:100110007F0200087F0200087F0200087F020008BB
:100120007F0200087F0200087F0200087F020008AB
:100130007F0200087F0200087F0200087F0200089B
:100140007F0200087F0200087F0200087F0200088B
:100150007F0200087F0200087F0200087F0200087B
:100160007F0200087F0200087F0200087F0200086B
:100170007F0200087F0200087F02000800000000E4
:100180007F0200087F0200087F0200087F0200084B
:100190007F0200087F0200087F0200087F0200083B
:1001A0007F0200087F0200087F0200087F0200082B
:1001B0007F02000800F002F800F041F80AA090E881
:1001C000000C82448344AAF10107DA4501D100F012
:1001D00036F8AFF2090EBAE80F0013F0010F18BF9E
:1001E000FB1A43F00103184790260000B0260000D8
:1001F000103A24BF78C878C1FAD8520724BF30C853
:1002000030C144BF04680C60704700000023002424
:1002100000250026103A28BF78C1FBD8520728BF16
:1002200030C148BF0B607047642900F07D8000201A
:1002300070471FB502F012FB1FBD10B510BD00F0D6
:100240003BF91146FFF7F5FF02F0F0F900F059F91C
:1002500003B4FFF7F2FF03BC02F08EF980F30888C5
:10026000704700000948804709480047FEE7FEE75D
:10027000FEE7FEE7FEE7FEE7FEE7FEE7FEE7FEE756
:1002800004480549054A064B704700002D20000828
:10029000B5010008E0080020E00E0020E00A002080
:1002A000E00A0020704700000FB4044910B503AA0B
:1002B000029800F0D3F810BC5DF814FB1400002085
:1002C0002DE9F0410E460446002020622046E168F8
:1002D000884730B3252805D0D4E901219047206A0A
:1002E000401CF2E7E168204600278847050018D047
:1002F000A5F14100192802D820354FF40067324695
:10030000294620462760FFF78FFF40B1012804D01F
:10031000F61D26F007060836D8E7361DD6E728462C
:10032000DAE7206ABDE8F0812DE9F04106460024B5
:1003300010687529314616A510D0AFF3008000284B
:1003400002DA404213A507E031688A0701D512A5F9
:1003500002E0490704D511A5012401E0AFF30080B4
:1003600000210A2206F1240709E0B0FBF2FCB0FBF1
:10037000F2F302FB1C00303078541846491C002868
:10038000F3D123462A463046BDE8F04100F00CB8D0
:10039000000000002D0000002B00000020000000E5
:1003A00070477047704770472DE9F0470D469946F2
:1003B0009246044600F124080168880604D5E069E5
:1003C00021F01001216000E00120A84201DD471B5F
:1003D00000E00027A1697A1902EB0900081AA06160
:1003E0002078C00602D42046AFF30080002608E043
:1003F000D4E901211AF806009047206A401C761CB7
:1004000020624E45F4DB2078C0060AD52046AFF3C3
:10041000008006E0D4E9012130209047206A401C8A
:100420002062381EA7F10107F4DC07E0D4E90121BE
:1004300018F805009047206A401C2062281EA5F18C
:100440000105F3DC2046AFF300802078000602D5DA
:100450000220BDE8F0870120FBE70000074B70B5E4
:100460000D467B4400F011F80446284600F020F8C1
:1004700010B14FF0FF3070BD204670BD1721000055
:1004800001694A1C02610878704700B58FB0CDE958
:1004900001310021059105497944CDE90310114648
:1004A0006846FFF70DFF0FB000BD0000E5FFFFFF3E
:1004B000007B00F080007047754600F029F8AE46DA
:1004C00005006946534620F00700854618B020B560
:1004D000FFF7D6FEBDE820404FF000064FF00007C2
:1004E0004FF000084FF0000B21F00701AC46ACE8DC
:1004F000C009ACE8C009ACE8C009ACE8C0098D4649
:1005000070470446AFF300802046FFF7A1FE0000CD
:10051000004870478008002000BFFEE7704710B514
:10052000012000F021FB10BD10B5002201B909E047
:10053000012901D10A0205E0022901D10A0201E0E4
:100540004FF440720B2800D9001D114B1B6823F497
:1005500040730F4C236023461B68134323602346DC
:100560001B6823F0F803236023461B68F82494FAE1
:10057000A4F4B4FA84F400FA04F444F0020423432B
:10058000034C236023461B6843F48033236010BD73
:10059000103C02401C48006800F40070B0B11A48DA
:1005A000006820F400701849086000BF0846006821
:1005B00040F4006008600846006820F400600860AD
:1005C00000BF0846006840F4007008600E480068EC
:1005D00000F48060B0B10C48006820F480600A49E3
:1005E000086000BF0846006840F480500860084674
:1005F000006820F48050086000BF0846006840F49E
:100600008060086070470000003C024010B5024660
:100610000020144B1B6823F44073124C23602346C4
:100620001B6803432360032906D123461B68E41398
:1006300023430C4C23600EE0012906D1094B1B68B3
:1006400043F00403074C236005E0064B1B6843F4AA
:100650000043044C2360034B1B6843F48033014C7C
:10066000236010BD103C0240074A126822F4407219
:10067000054B1A601A4612681A601A46126842F050
:1006800001021A6001707047103C024010B5094920
:10069000096821F44071074C21602146096841F442
:1006A000407121602146096841F00101216002602A
:1006B000436010BD103C0240084A126822F44072A8
:1006C000064B1A601A46126842F480721A601A4683
:1006D000126842F001021A6001807047103C02402B
:1006E000084A126822F44072064B1A601A461268D1
:1006F00042F400721A601A46126842F001021A604F
:1007000001607047103C02402A48006800F0100069
:1007100040B12948C06940F010002749C861102045
:10072000244908602348006800F0200040B12248B6
:10073000C06940F008002049C86120201D490860B8
:100740001C48006800F0400040B11B48C06940F000
:1007500004001949C861402016490860154800681E
:1007600000F0800040B11448C06940F00200124916
:10077000C86180200F4908600E48006800F480704E
:1007800048B10D48C06940F001000B49C8614FF401
:100790008070084908600748006800F0020040B116
:1007A0000548C06940F020000349C86102200149A2
:1007B000086070470C3C02402000002070B50446E1
:1007C000002500201449C86100F0EEFA054609E052
:1007D000601C38B124B100F0E7FA401BA04201D9F7
:1007E000032070BD0D48006800F480300028EFD170
:1007F0000A48006800F0010010B1012007490860B4
:100800000648006800F4F97018B1FFF77DFF012079
:10081000E7E70020E5E70000200000200C3C024054
:1008200031B5002400F0C0FA044600BF00F0BCFA65
:10083000001B00998842F9D338BD00002DE9F04132
:1008400004460E460127002500BF2648007E0128E9
:1008500002D10220BDE8F08101202249087600BFC4
:100860004CF25030FFF7AAFF0746002F32D1401E4E
:1008700030602068012810D1207C6168FFF7C6FE37
:100880004CF25030FFF79AFF07461748006848F2CD
:1008900004018843144908601AE0A56812E0217C2D
:1008A0002846FFF741FE4CF25030FFF787FF07461E
:1008B0000D48006820F0FA000B4908600FB1356060
:1008C00005E06D1CD4E902100844A842E7D800BF37
:1008D000FFF760FE00BF00200249087600BF3846DF
:1008E000B8E7000020000020103C024003480068E8
:1008F00040F000400149086000207047103C024071
:100900002DE9F04106460F4614461D464FF00108FA
:1009100000BF1F48007E012802D10220BDE8F081FF
:1009200001201B49087600BF4CF25030FFF746FF0C
:100930008046B8F1000F23D126B9E1B23846FFF75F
:1009400093FE12E0012E04D1A1B23846FFF7B4FEA7
:100950000BE0022E04D121463846FFF7C1FE04E029
:1009600022462B463846FFF791FE4CF25030FFF7F7
:1009700025FF80460748006820F00100054908600F
:1009800000BF00200249087600BF4046C6E70000CD
:1009900020000020103C02400748006800F00040A2
:1009A00030B1064804490C3908600548086001E088
:1009B000012070470020FCE7103C024023016745FE
:1009C000AB89EFCDF0B50C460025002200230021B5
:1009D0009CE0012606FA01F504EA0502AA427DD14F
:1009E00006684FEA410C032707FA0CF7BE4306607E
:1009F000CF0800F1200656F827604F074FEAD76C62
:100A00000F2707FA0CF7BE434FEAD10C00F120077D
:100A100047F82C6086684FEA410C032707FA0CF769
:100A2000BE438660476801268E40B7434760C6686C
:100A30004FEA410C032707FA0CF7BE43C660354E58
:100A40008F0856F827308E07370F0F26BE403340E9
:100A5000314EB04201D100262DE0304EB04201D1DE
:100A6000012628E02E4EB04201D1022623E02D4E71
:100A7000B04201D103261EE02B4EB04201D1042624
:100A800019E02A4EB04201D1052614E0284EB042AA
:100A900001D106260FE0274EB04201D107260AE019
:100AA000254EB04201D1082605E0244EB04201D1C6
:100AB000092600E00A268F073F0FBE409E4224D140
:100AC0008E07370F0F2606FA07F3124E8F0856F8D7
:100AD00027609E430F4F4FEA910C00E015E047F866
:100AE0002C60174E36689643154F3E603E1D3668A3
:100AF00096433F1D3E603E1D366896433F1D3E6057
:100B00003E1D366896433F1D3E60491C1029FFF488
:100B100060AFF0BD08380140000002400004024010
:100B200000080240000C0240001002400014024085
:100B300000180240001C0240002002400024024035
:100B4000003C014001280AD105490978C943044AFB
:100B500011700449096881F00801024A1160704768
:100B6000000000201428024010B504460448006824
:100B7000204020B1024804602046FFF7E3FF10BD8B
:100B8000143C0140F8B502460B4600250024002025
:100B90000021E4E0012606FA01F51E6806EA0504D4
:100BA000AC4271D15E68022E02D05E68122E13D163
:100BB000CF0802F1200656F827004E07F70E0F2641
:100BC000BE40B0434F07FF0E1E69BE403043CF0802
:100BD00002F1200646F8270010684F000326BE40A9
:100BE000B0431E7906F003064F00BE40304310604C
:100BF0005E68012E08D05E68022E05D05E68112E58
:100C000002D05E68122E13D190684F000326BE40BA
:100C1000B0434F00DE68BE4030439060506801260C
:100C20008E40B0431E79C6F300168E4030435060AC
:100C3000D0684F000326BE40B0434F009E68BE40C0
:100C40003043D0605E6806F08056B6F1805FA8D170
:100C500000BF454E366846F48046434F3E603E46F0
:100C6000366806F48046009600BF00BF3F4E8F08EE
:100C700056F827008E07370F0F26BE40B0433C4E74
:100C8000B24202D100262EE068E03A4EB24201D1D3
:100C9000012628E0384EB24201D1022623E0374E29
:100CA000B24201D103261EE0354EB24201D10426E4
:100CB00019E0344EB24201D1052614E0324EB24260
:100CC00001D106260FE0314EB24201D107260AE0DB
:100CD0002F4EB24201D1082605E02E4EB24201D17C
:100CE000092600E00A268F073F0FBE4030431F4E03
:100CF0008F0846F82700284E3068A0435E6806F447
:100D00008036B6F5803F00D12043234E3060361D3B
:100D10003068A0435E6806F40036B6F5003F00D1A7
:100D200020431D4E361D3060361D3068A0435E687E
:100D300006F48016B6F5801F00D12043164E083603
:100D40003060361D3068A0435E6806F40016B6F5C4
:100D5000001F00D12043104E0C363060491C102972
:100D6000FFF418AFF8BD00004438024008380140D5
:100D7000000002400004024000080240000C024053
:100D8000001002400014024000180240001C024003
:100D90000020024000240240003C01400AB1816171
:100DA00001E00B0483617047014800687047000050
:100DB0000400002002480068401C01490860704798
:100DC0000400002010B50D48006840F400700B4985
:100DD00008600846006840F48060086008460068C3
:100DE00040F480700860032000F072F80F2000F0DB
:100DF00007F800F017F8002010BD0000003C02408A
:100E000070B5044600F020FA4FF47A71B0FBF1F5AA
:100E1000284600F0C7FC00222146501E00F019F8B9
:100E2000002070BD10B5032000F052F800221146DA
:100E3000501E00F00EF810BD00BF00F01F0201218F
:100E400091404209920002F1E022C2F8001100BF75
:100E500070472DE9F05F80460D461646002700F0EA
:100E600069FF074639462A46334601F00700C0F1BC
:100E7000070ABAF1040F02D94FF0040A01E0C0F1E9
:100E8000070AD14600F1040ABAF1070F02D24FF067
:100E9000000A01E0A0F1030AD4464FF0010A0AFA61
:100EA00009FAAAF1010A0AEA020A0AFA0CFA4FF050
:100EB000010B0BFA0CFBABF1010B0BEA030B4AEA3B
:100EC0000B042146404600F03DFFBDE8F09F0000C6
:100ED00000BF00F00702064B19684FF6FF031940E8
:100EE000044B0B4343EA0221014B196000BF7047DA
:100EF0000CED00E00000FA0538B5002400BF2348DF
:100F0000006840F08050214908600846006800F001
:100F10008050009000BF00BF0120010491FAA1F1B0
:100F2000B1FA81F11A4A42F82100FFF73DFF044669
:100F300007E0FFF739FF001BB0F57A7F01D90320E6
:100F400038BD1448406800F48030B0F5803FF0D1DF
:100F50000120410491FAA1F1B1FA81F10C4A42F861
:100F60002100FFF721FF044607E0FFF71DFF001BEC
:100F7000B0F57A7F01D90320E2E70648406800F423
:100F80000030B0F5003FF0D10020D9E740380240F2
:100F900000000E420070004070B504460E46002569
:100FA000A748006800F00F00B0426FD2A4490E704D
:100FB0000846006800F00F00B04201D0012070BD6B
:100FC000207800F00200022807D19E48006820F037
:100FD000F000A16808439B490860207800F00100F8
:100FE00000283ED06068012807D19648083800687C
:100FF000C0F34040B8B90120E1E76068022802D0A0
:101000006068032807D18F4808380068C0F3406043
:1010100048B90120D3E78B4808380068C0F3400086
:1010200008B90120CBE78748006820F00300616819
:10103000084384490860FFF7B7FE05466068012849
:1010400010D108E0FFF7B0FE401B41F28831884222
:1010500001D90320B3E77B48006800F00C000428A6
:10106000F0D1CDE06068022811D108E0FFF79CFEC6
:10107000401B41F28831884201D903209FE7714823
:10108000006800F00C000828F0D1B9E024E06068A6
:10109000032810D108E0FFF787FE401B41F288319A
:1010A000884201D903208AE76648006800F00C00F6
:1010B0000328F0D1A4E008E0FFF776FE401B41F2E0
:1010C0008831884201D9032079E75E48006800F042
:1010D0000C000028F0D193E0207800F002000228F4
:1010E00007D15848006820F0F000A168084355492E
:1010F0000860207800F00100002877D0606801289F
:1011000007D1504808380068C0F34040B8B9012002
:1011100055E76068022802D06068032807D1494873
:1011200008380068C0F3406048B9012047E74548E7
:1011300008380068C0F3400008B901203FE7414883
:10114000006820F00300616808433E490860FFF72B
:101150002BFE05466068012810D108E0FFF724FE49
:10116000401B41F28831884201D9032027E73548E6
:10117000006800F00C000428F0D137E06068022815
:1011800010D108E0FFF710FE401B41F28831884281
:1011900001D9032013E72B48006800F00C00082851
:1011A000F0D123E06068032810D108E0FFF7FCFDD0
:1011B000401B41F28831884201D90320FFE62148D3
:1011C000006800F00C000328F0D10FE008E0FFF702
:1011D000EBFD401B41F28831884201D90320EEE645
:1011E0001848006800F00C000028F0D114490E7077
:1011F0000846006800F00F00B04201D00120DEE692
:10120000207800F00400042807D10E48006820F47C
:10121000E050E16808430B490860207800F00800BE
:10122000082808D10748006820F46040216940EA96
:10123000C100044908600F20FFF7E2FD0020BEE670
:10124000003C02400838024010B500F045F809495A
:10125000096801F0F001F02292FAA2F2B2FA82F2E9
:10126000D140054A515CC8400449086008460068FE
:1012700010BD000008380240662800081C0000204D
:1012800010B5FFF7E1FF0749096801F4E0514FF499
:10129000E05292FAA2F2B2FA82F2D140024A515CD2
:1012A000C84010BD083802406628000810B5FFF796
:1012B000CBFF0749096801F460414FF4604292FA9C
:1012C000A2F2B2FA82F2D140024A515CC84010BD8B
:1012D000083802406628000870B50021002200236B
:1012E0000020274C246804F00C0424B1042C04D002
:1012F000082C41D103E0234840E023483EE0204C45
:10130000241F246804F03F011D4C241F246804F4AA
:10131000800484B11C4CB4FBF1F5194C241F2468E3
:1013200047F6C076344096FAA6F6B6FA86F6F4404A
:1013300005FB04F20FE0134CB4FBF1F5104C241F35
:10134000246847F6C076344096FAA6F6B6FA86F6D2
:10135000F44005FB04F20A4C241F246804F44034D2
:101360004FF4403595FAA5F5B5FA85F5EC40641CC7
:101370006300B2FBF3F001E0024800BF00BF70BDA4
:10138000083802400024F40000127A0038B5044600
:101390000025207800F00100002866D0F64800689B
:1013A00000F00C0004280DD0F348006800F00C0099
:1013B000082813D1F048001F006800F48000B0F541
:1013C000800F0BD1EC4808380068C0F3404000287B
:1013D0004BD06068002848D1012038BD0020E64984
:1013E000891F0870FFF7E0FC054608E0FFF7DCFC0A
:1013F000401B41F28831884201D90320EDE7DE48E5
:1014000008380068C0F340400028EFD12079DA495D
:10141000891F08706068A0B1FFF7C6FC054608E0A8
:10142000FFF7C2FC401B41F28831884201D90320FA
:10143000D3E7D14808380068C0F340400028EFD017
:1014400013E0FFF7B1FC054608E0FFF7ADFC401BD9
:1014500041F28831884201D90320BEE7C6480838E6
:101460000068C0F340400028EFD1207800F002006F
:10147000022869D1C048006800F00C0058B1BE488D
:10148000006800F00C00082821D1BB48001F00684C
:1014900000F48000D8B9B84808380068C0F34000AC
:1014A00020B1E068012801D0012096E7B248083851
:1014B000006820F0F800F82292FAA2F2B2FA82F262
:1014C000216991400843AC49083908603CE0E06874
:1014D00028B30120A9490860FFF766FC054606E02D
:1014E000FFF762FC401B642801D9032075E7A2487E
:1014F00008380068C0F340000028F1D09E48083842
:10150000006820F0F800F82292FAA2F2B2FA82F211
:1015100021699140084398490839086014E0002087
:1015200096490860FFF740FC054606E0FFF73CFCE3
:10153000401B642801D903204FE78F480838006812
:10154000C0F340000028F1D1207800F008000828FE
:101550002CD16069A8B1012089490860FFF724FCFB
:10156000054606E0FFF720FC401B642801D9032054
:1015700033E781486C300068C0F340000028F1D0A8
:1015800014E000207E490860FFF70EFC054606E0E7
:10159000FFF70AFC401B642801D903201DE77648A9
:1015A0006C300068C0F340000028F1D1207800F0D2
:1015B000040004286DD100BF6F483830006840F047
:1015C00080506D49383108600846006800F080504E
:1015D000009000BF00BF6B48006840F4807069490C
:1015E0000860FFF7E1FB054606E0FFF7DDFB401B67
:1015F000642801D90320F0E66248006800F4807096
:101600000028F2D000205C4968310870FFF7CCFB5D
:10161000054608E0FFF7C8FB401B41F288318842CD
:1016200001D90320D9E6544868300068C0F340006F
:101630000028EFD1207A504968310870A068A0B125
:10164000FFF7B2FB054608E0FFF7AEFB401B41F297
:101650008831884201D90320BFE6474868300068D6
:10166000C0F340000028EFD013E0FFF79DFB0546D4
:1016700008E0FFF799FB401B41F28831884201D90D
:101680000320AAE63C4868300068C0F34000002808
:10169000EFD1A069F0B33848006800F00C000828CA
:1016A0007AD0A069022859D1002034490866FFF792
:1016B0007BFB054606E0FFF777FB401B642801D95A
:1016C00003208AE62C4808380068C0F340600028F0
:1016D000F1D1D4E90701084347F6C07292FAA2F2A9
:1016E000B2FA82F2616A914008430122A16AC2EB18
:1016F00051014FF4403292FAA2F2B2FA82F29140D2
:1017000008434FF0706292FAA2F2B2FA82F2E16AF2
:10171000914000E042E008434FF0E04292FAA2F22A
:10172000B2FA82F2216B914008431349091F086005
:10173000012012490866FFF737FB054606E0FFF770
:1017400033FB401B642801D9032046E60A480838C9
:101750000068C0F340600028F1D01FE00020074976
:101760000866FFF721FB05460FE0FFF71DFB401B56
:1017700064280AD9032030E60838024000004742B6
:10178000800E47420070004006E005480068C0F344
:1017900040600028E9D101E001201EE600201CE69F
:1017A0000038024070B504462546681EB0F1807FBF
:1017B00001D301200FE0681E4FF0E02148610F21A6
:1017C0004FF0FF3000F0BEFA00204FF0E0218861BA
:1017D00007200861002070BD10B504460CB9012037
:1017E00010BD022084F83900204600F0D3F8002014
:1017F000E06384F8390000BF84F8380000BF00BF00
:10180000EEE77047F8B5044600250026206800681A
:1018100000F001052068C06800F480766DB166B103
:1018200000BF20680068009020684068009000BFFA
:1018300000BFE06B40F00100E06320680068C0F387
:1018400040052068406900F001066DB166B100BF37
:1018500020680068009020684068009000BF00BFCA
:10186000E06B40F00400E06320680068C0F380058E
:101870002068406900F001066DB166B100BF2068C4
:101880000068009020684068009000BF00BFE06BD7
:1018900040F00200E06320680068C0F3C0052068E3
:1018A000406900F001066DB166B100BF20680068B4
:1018B000009020684068009000BF00BFE06B40F0DF
:1018C0000800E06320680068C0F340152068C06825
:1018D00000F020061DB116B1204600F0FDFB206887
:1018E0000068C0F3C0152068C06800F080061DB114
:1018F00016B1204600F060FD20680068C0F3801536
:101900002068C06800F040061DB116B1204600F006
:10191000BFFBE06B28B1012084F839002046FFF7B7
:1019200070FFF8BD10B504460CB9012010BDA069C8
:1019300000B100E000BF94F8390028B9002084F815
:101940003800204600F03EF8022084F83900206874
:10195000C06820F400502168C860204600F01AFCDE
:101960002068006920F4904021680861206840697F
:1019700020F02A00216848612068C06840F40050C7
:101980002168C8600020E063012084F8390000204D
:10199000CCE7000010B504460749206888420AD108
:1019A0000648006820F48020044908604FF4406134
:1019B0000348FFF707F810BD0048004040380240D8
:1019C0000004024010B586B004461D4920688842D4
:1019D0002CD100BF1B48006840F4802019490860E2
:1019E0000846006800F48020009000BF00BF00BFE0
:1019F00014481038006840F002001249103908609D
:101A00000846006800F00200009000BF00BF4FF4DD
:101A10004060019002200290012003900320049076
:101A20000720059001A90848FFF7ACF82720FFF729
:101A300003FA032211462720FFF70BFA06B010BD68
:101A40000048004040380240000402402DE9F047C1
:101A500004460D46164699464FF0000894F8398022
:101A6000B8F1010F02D0B8F1120F69D105B116B962
:101A70000120BDE8F08700BF94F83800012801D1AB
:101A80000220F6E7012084F8380000BF0020E06360
:101A900094F83900122803D1322084F8390002E08A
:101AA000222084F83900A685E68535E0E08D401EC9
:101AB000E085A068B0F5805F18D14B460022202158
:101AC000204600F0B1FC08B10320D2E72F46206980
:101AD00030B920684068C0F308003880AD1C1BE0B6
:101AE00020684068C0B238806D1C15E04B4600226B
:101AF0002021204600F098FC08B10320B9E72069B6
:101B000020B92068406805F8010B05E020684068AE
:101B100000F07F0005F8010BE08D0028C6DC94F88A
:101B20003900322803D1122084F8390002E0012064
:101B300084F8390000BF002084F8380000BF98E71F
:101B4000022096E730B50346002493F83940012C73
:101B500001D0122C37D101B10AB9012030BD00BF2C
:101B600093F83800012801D10220F7E7012083F81B
:101B7000380000BF99629A85DA850020D86393F80F
:101B80003900122803D1322083F8390002E02220E4
:101B900083F839001868C06840F480701D68E860F8
:101BA0001868406940F001001D68686100BF0020AE
:101BB00083F8380000BF1868C06840F020001D6836
:101BC000E8600020CAE70220C8E77047704700BFFE
:101BD000FEE7000000B587B000BF3D48006840F058
:101BE00001003B4908600846006800F001000190D0
:101BF00000BF00BF00BF0846006840F0400008601A
:101C00000846006800F04000019000BF00BF00BF20
:101C10000846006840F0080008600846006800F0C8
:101C20000800019000BF00BF00BF0846006840F4F4
:101C3000806008600846006800F48060019000BF82
:101C400000BF4020029001200390049003200590E3
:101C500002A92048FEF796FF302002900120039051
:101C600004900320059002A91B48FEF78BFF082073
:101C700002900120039004900320059002A91748C8
:101C8000FEF780FF01200290154803900220049087
:101C90000320059002A91348FEF774FF012240219A
:101CA0000C48FFF77BF8012230210B48FFF776F84C
:101CB000012208210948FFF771F8002202210620BD
:101CC000FFF7C7F80620FFF7B7F807B000BD000020
:101CD0003038024000180240000C02400028024048
:101CE000000011100000024010B50D480D490860B9
:101CF0004FF4E130486000210A488160C160016111
:101D00000C21416100218161FFF766FD0548FFF765
:101D100009FE012204490348FFF714FF10BD00002B
:101D200000480040400000200800002000BFFEE7FF
:101D30007047000002480068C0F3022070470000AE
:101D40000CED00E010B5002807DA0A07140E054A6A
:101D500000F00F031B1FD45403E00A07130E024ABE
:101D6000135410BD18ED00E000E400E070470000DF
:101D700001463A48814201D20020704738488142EA
:101D800001D20120F9E73748814201D20220F4E76D
:101D90003548814201D20320EFE73448814201D225
:101DA0000420EAE73248814201D20520E5E73148C4
:101DB000814201D20620E0E72F48814201D207206C
:101DC000DBE72E48814201D20820D6E72C48814229
:101DD00001D20920D1E72B48814201D20A20CCE769
:101DE000B1F1016F01D20B20C7E72748814201D230
:101DF0000C20C2E72548814201D20D20BDE72448CE
:101E0000814201D20E20B8E72248814201D20F2040
:101E1000B3E72148814201D21020AEE71F4881423A
:101E200001D21120A9E71E48814201D21220A4E765
:101E30001C48814201D213209FE71B48814201D2F6
:101E400014209AE71948814201D2152095E71848D5
:101E5000814201D2162090E717208EE7004000084B
:101E60000080000800C0000800000108000002080F
:101E700000000408000006080000080800000A0826
:101E800000000C0800000E08004010080080100838
:101E900000C010080000110800001208000014081B
:101EA000000016080000180800001A0800001C08AE
:101EB00000001E0801460868704700002DE9F04345
:101EC00087B004460E4617464FF0000900200190E7
:101ED00000258046B4F1006F02D304F0030010B176
:101EE00007B0BDE8F083FEF757FD254604EB8708F1
:101EF0001E4885421DD219E02846FFF7DBFF401C33
:101F000078B1002002902846FFF732FF04900120AC
:101F100005900220069001A902A8FEF78FFC08B1E7
:101F200006E02D1D4CF25030FEF748FC4545E3D34A
:101F300000BF4CF25030FEF741FC8146B9F1000F72
:101F40000FD10BE0D6F800C06246002321460220E4
:101F5000FEF7D6FC00B103E0241D361D4445F1D345
:101F600000BFFEF7C3FC00BFBAE700000000FF1F80
:101F7000704710B5FEF71EFF10BD000010B594B0FD
:101F8000002400BF2748006840F0805025490860C1
:101F90000846006800F08050019000BF00BF00BFFD
:101FA0002148006840F440401F4908600846006826
:101FB00000F44040019000BF00BF01200290039058
:101FC000022008904105099108210A914FF4B4714B
:101FD0000B9102210C9107210D9106210E9102A86F
:101FE000FFF7D4F904460CB100BFFEE7FEF784FF0B
:101FF00004460CB100BFFEE70F200F9002201090A6
:10200000002011904FF4A05012904FF48050139084
:1020100005210FA8FEF7C0FF04460CB100BFFEE784
:1020200014B010BD403802400070004014480068F1
:1020300040F47000124908601248006840F0010046
:102040001049086000200F49083108600D480068F9
:102050000D4908400B4908600C48091D0860081F1D
:10206000006820F48020091F0860002005490C3119
:1020700008604FF000600249803908607047000036
:1020800088ED00E000380240FFFFF6FE103000242B
:1020900010B504462068C06820F040002168C86080
:1020A00094F83900322803D1222084F839000EE058
:1020B0002068C06820F480702168C860206840698A
:1020C00020F0010021684861012084F83900204691
:1020D000FFF77CFD002010BD70B50446002694F883
:1020E0003960222E01D0322E52D1A068B0F5805F27
:1020F00013D1A56A206940B920684068C0F3080080
:102100002880A06A801CA06219E020684068C0B2E4
:102110002880A06A401CA06211E0206938B92068BC
:102120004068C1B2A26A501CA062117007E020682A
:10213000406800F07F01A26A501CA0621170E08D1F
:10214000401E80B2E08508BB2068C06820F02000F7
:102150002168C86094F83900322803D1122084F82D
:1021600039000EE02068C06820F480702168C860E3
:102170002068406920F0010021684861012084F84E
:1021800039002046FFF721FD002070BD0020FCE74C
:102190000220FAE72DE9F041044600252068056990
:1021A00025F44055E0680543206805612068C5684E
:1021B00049F20C6085432169A068084361690843BE
:1021C000E169084305432068C5602068456925F436
:1021D0004075A069054320684561E069B0F5004F8E
:1021E00072D173492068884203D0724920688842BE
:1021F00034D1FFF75BF800EBC00101EB0010616820
:102200004900B0FBF1F06421B0FBF1F6FFF74EF8A6
:1022100000EBC00101EB001061684900B0FBF1F771
:10222000FFF744F800EBC00101EB001061684900C2
:10223000B0FBF1F06421B0FBF1F000EBC00101EB69
:102240000010A7EB8000322101EB00106421B0FBED
:10225000F1F066F31F1021688860A6E0FFF710F820
:1022600000EBC00101EB001061684900B0FBF1F028
:102270006421B0FBF1F6FFF703F800EBC00101EBBE
:10228000001061684900B0FBF1F7FEF7F9FF00EBC1
:10229000C00101EB001061684900B0FBF1F064215E
:1022A000B0FBF1F000EBC00101EB0010A7EB8000E8
:1022B000322101EB00106421B0FBF1F066F31F1036
:1022C0002168886071E0FFE739492068884203D0BF
:1022D00038492068884234D1FEF7E8FF00EBC0019E
:1022E00001EB001061688900B0FBF1F06421B0FBE4
:1022F000F1F6FEF7DBFF00EBC00101EB00106168B7
:102300008900B0FBF1F7FEF7D1FF00EBC00101EB54
:10231000001061688900B0FBF1F06421B0FBF1F0BE
:1023200000EBC00101EB0010A7EB8000322101EBB4
:1023300000106421B0FBF1F066F31F102168886083
:1023400033E0FEF79DFF00EBC00101EB0010616878
:102350008900B0FBF1F06421B0FBF1F6FEF790FFCD
:1023600000EBC00101EB001061688900B0FBF1F7E0
:10237000FEF786FF00EBC00101EB001061688900E9
:10238000B0FBF1F06421B0FBF1F000EBC00101EB18
:102390000010A7EB8000322101EB00106421B0FB9C
:1023A000F1F066F31F1021688860BDE8F08100003D
:1023B000001001400014014010B50146002391F8BF
:1023C0003930122B01D0322B2CD18868B0F5805FC8
:1023D0000FD10A6A1088C0F308000C6860600869B1
:1023E00018B9086A801C086209E0086A401C086283
:1023F00005E00C6A601C086220780C686060C88C7C
:10240000401E80B2C88458B90868C06820F08000B7
:102410000C68E0600868C06840F040000C68E0604C
:10242000002010BD0220FCE72DE9F04104460E46D5
:1024300017461D464FF00008FEF7B6FC80469FBBCE
:102440002BE0681C48B32DB1FEF7AEFCA0EB0800F2
:10245000A84222D92068C06820F080002168C860A6
:102460002068C06820F020002168C8602068C0682B
:1024700020F480702168C8602068406920F0010065
:1024800021684861012084F8390000BF002084F8E9
:10249000380000BF0320BDE8F081206800683040AC
:1024A000B04202D1012001E003E000200028C8D0A2
:1024B00035E02AE0681C40B32DB1FEF775FCA0EBB7
:1024C0000800A84221D92068C06820F08000216857
:1024D000C8602068C06820F020002168C8602068BB
:1024E000C06820F480702168C8602068406920F0CE
:1024F000010021684861012084F8390000BF0020F4
:1025000084F8380000BF0320C5E720680068304029
:10251000B04201D1012000E000200028CAD10020F3
:10252000B9E7000008B5104800680068C0F3401023
:10253000B0B14FF47A73012269460B48FFF786FA6F
:102540000A480068B0F5343F0AD29DF800000849F7
:10255000064A1268885405480068401C0349086010
:102560000148FFF74FF908BD40000020100000208F
:102570000010002000BFFEE700BF704700BF054A03
:10258000126802F04002002AF9D0C2B2014B1B1DB2
:102590001A6070470048004010B50446074920689B
:1025A0000840B0F1005F08D1054960680860206804
:1025B000FDF754FE02480068804710BD0000F02F70
:1025C000180000202DE9F05F074688469146002557
:1025D000BB464446AA461DE0E0780606A07846EAD7
:1025E0000046607846EA002620780643241D2846E7
:1025F000691C8DB20C4941F82060B5F5007F07D108
:1026000000254FF400725846FFF758FC0BF5006B9D
:102610000AF1040ACA45DFD325B12A4602495846C1
:10262000FFF74CFCBDE8F09F80000020002700244D
:102630000026FEF7C7FBFFF7A1FCFFF7CBFAFFF779
:1026400053FB6420FEF7ECF836A0FDF72DFE68E0A2
:1026500038480068A0B13748006887420DD1354836
:102660000468002700203349086033A0FDF71CFEF2
:10267000214636A0FDF718FE02E02E48008887B2FA
:10268000681CC5B20A20FEF7CBF81E2D03D1002529
:102690000EB1701EC6B232480078002828D1002C36
:1026A0001FD030A0FDF700FE33A0FDF7FDFD384838
:1026B000406800F07F40B0F1006F0BD122463549F1
:1026C0003548FFF77FFF35A0FDF7EEFD39A0FDF798
:1026D000EBFD0CE03BA0FDF7E7FD40A0FDF7E4FDBE
:1026E00005E043A0FDF7E0FD47A0FDF7DDFD07266F
:1026F0001B480078012814D145A0FDF7D5FD2648D8
:10270000406800F07F40B0F1006F03D12248FFF72E
:1027100043FF05E045A0FDF7C7FD4BA0FDF7C4FD55
:10272000072695E748656C6C6F20576F726C6421C3
:102730000A00000010000020D3C3BBA7B3CCD0F226
:10274000BDD3CAD5CDEAB3C9210D0A00B4FAC2EB94
:10275000B3A4B6C83A256442797465730D0A0000C3
:1027600000000020BFAACABCB8FCD0C2B9CCBCFED5
:102770002E2E2E0A00000000436F7079696E6720CC
:1027800041505032464C4153482E2E2E0A00000034
:10279000001000200010002000000108436F707935
:1027A0002041505020537563636573736564212124
:1027B00000000000B9CCBCFEB8FCD0C2CDEAB3C961
:1027C000210D0A00496C6C6567616C20464C4153D1
:1027D000482041505021202000000000B7C7464C3F
:1027E000415348D3A6D3C3B3CCD0F2210D0A000085
:1027F000C3BBD3D0BFC9D2D4B8FCD0C2B5C4B9CC46
:10280000BCFE210D0A0000004E6F204150502100F7
:10281000BFAACABCD6B4D0D0464C415348D3C3BBE0
:10282000A7B4FAC2EB21210D0A000000B7C7464C3D
:10283000415348D3A6D3C3B3CCD0F22CCEDEB7A835
:10284000D6B4D0D0210D0A00496C6C6567616C204C
:10285000464C415348204150502100004FF04070F9
:10286000E1EE100A704700000000010203040102BB
:10287000030406070809000098280008000000204B
:1028800020000000F0010008B82800082000002007
:10289000E0DF02000C020008010000000000000060
:1028A0000000000000000000000000000000000028
:0828B000000000000024F40008
:04000005080001B539
:00000001FF
